:020000040800F2
:1000000018050020490100084D0100084F010008B3
:1000100051010008530100085501000800000000CC
:100020000000000000000000000000005701000870
:1000300059010008000000005B0100085D01000894
:100040005F0100085F0100085F0100085F01000810
:100050005F0100085F010008590500085F01000802
:1000600089050008AD050008D10500085F010008FA
:100070005F0100085F0100085F0100085F010008E0
:100080005F0100085F0100085F0100085F010008D0
:100090005F0100085F0100085F0100085F010008C0
:1000A0005F0100085F0100085F0100085F010008B0
:1000B00099080008C5080008F10800085F01000859
:1000C0005F0100085F0100085F0100085F01000890
:1000D0005F010008F10D00085F0100085F010008E2
:1000E0005F0100085F0100085F0100085F01000870
:1000F0005F0100085F0100085F0100085F01000860
:100100005F0100085F0100081D0900085F01000889
:100110005F0100085F010008550900088109000817
:100120005F0100085F0100085F0100085F0100082F
:10013000DFF810D000F044F900480047A110000893
:10014000AFF300801805002005480047FEE7FEE7F2
:10015000FEE7FEE7FEE7FEE7FEE7FEE7FEE7FEE777
:1001600031010008F0B480EA0102D40F4200B2EB82
:10017000410F02D20246084611464A0042D0C30D42
:10018000DDB2C1F3C752AD1A202D35DAC1F3160125
:1001900041F4000204B15242C5F1200602FA06F110
:1001A0002A411044B3EBD05F23D0C4B1012DA0EBA2
:1001B000C35009DCF0BC4FF0004202EAC352DBB28C
:1001C00000F5000000F0CEB8400000F1807000EBB8
:1001D000C350A0F1807040EAD170490009E049089D
:1001E00041EAC071A0EBC35000F50000400800EBED
:1001F000C350F0BC00F0ADB86142012202EB4101F6
:10020000001BF6E7F0BC704781F00041AAE780F0E0
:100210000040A7E780EA010210B502F00043400069
:1002200022D04A001FD0010E01EB1261C0F356002C
:10023000C2F3560240F4000042F40002A0FB022088
:1002400000047F39140400D0401C50EA124001D44D
:100250004000491EC2B20C0604EBD010401C4008FE
:10026000802A02D003E0002010BD20F00100002908
:1002700000DA0020184310BD30B480EA010202F019
:10028000004530F0004221F0004013D090B1C30D82
:10029000D40DC2F31601C0F31600E41A41F40001B4
:1002A00040F400027D34914201D3641C00E0490017
:1002B000002C02DA30BC002070474FF4000000230D
:1002C000914201D3891A034340084FEA4101F7D113
:1002D00051B1914202D14FF0004105E002D24FF0FE
:1002E000010101E06FF0010103EBC450284430BC70
:1002F00000F02FB896230022114600F033B820F00A
:100300000040C10DC0F3160040F400007F2901DA5F
:1003100000207047962903DCC1F19601C840704760
:1003200096398840704730B50B46014600202022A0
:10033000012409E021FA02F59D4205D303FA02F5F2
:10034000491B04FA02F52844151EA2F10102F1DC52
:1003500030BD0029A8BF7047401C490008BF20F0ED
:100360000100704710B4B0FA80FC00FA0CF050EABB
:10037000010404BF10BC704749B1CCF1200421FA3C
:1003800004F411FA0CF118BF012121430843A3EB37
:100390000C01CB1D4FEA00614FEA102042BF002044
:1003A00010BC704700EBC35010440029A4BF10BC20
:1003B0007047401C490008BF20F0010010BC704786
:1003C000064C074D06E0E06840F0010394E80700A2
:1003D00098471034AC42F6D3FFF7AEFE8012000807
:1003E000A012000810B51748007858B115480078D9
:1003F000401E1449087000F03FF90446214612A03F
:1004000000F038FD1748007858B116480078401EB3
:100410001449087000F030F90446214612A000F09B
:1004200029FD1848007858B116480078401E154933
:10043000087000F021F90446214613A000F01AFDCF
:1004400010BD00000000002074696D6572312074D9
:10045000696D656F7574207469636B3A25640D0A64
:10046000000000000100002074696D657232207484
:10047000696D656F7574207469636B3A25640D0A44
:10048000000000000200002074696D657233207462
:10049000696D656F7574207469636B3A25640D0A24
:1004A000000000002DE9F04105460E4617461820D1
:1004B00000F042FE044667602673A5602046BDE852
:1004C000F081014611B94FF0FF307047D1E90402C5
:1004D0001061D1E9042050610020F6E700B5034621
:1004E0001846FFF7EEFF002000BD10B50246136965
:1004F000934205D1116151610A614A61002010BD2A
:1005000006E018680C68A04201D81B6900E001E011
:100510009342F6D100BF934206D0586901610B6146
:1005200058694861596105E0506901610A61506983
:10053000486151610020E2E710B5044600F09CF8E4
:1005400061680844206021460248FFF7CEFF002082
:1005500010BD00003800002010B51E2000F074FD12
:1005600006480078401C05490870012004490860CD
:1005700004480078401C0349087010BD200000208A
:10058000140401402100002010B50A2000F05CFD99
:1005900004480078401C03490870042002490860A0
:1005A00010BD0000200000201404014010B50A20F6
:1005B00000F04AFD04480078401C034908700820F8
:1005C0000249086010BD0000200000201404014012
:1005D00010B50A2000F038FD0421084600F00EF89E
:1005E00020B904480078401C0249087010200249D4
:1005F000086010BD220000201404014010B502461E
:1006000000230020072A21D2DFE802F004080C10A2
:1006100014181C00114C2468A3B218E0104C246874
:10062000A3B214E00F4CA468A3B210E00E4C2468EF
:10063000A3B20CE00D4C2468A3B208E00C4C246873
:10064000A3B204E00B4CA468A3B200E000BF00BF5B
:1006500043FA01F404F0010010BD00000808014055
:10066000080C014000100140081401400818014026
:10067000081C01400020014001480068704700004C
:100680001000002000B5002015490861C860142042
:10069000486100208861C8610846006840F0010098
:1006A0000860084640680F4908400D494860084600
:1006B00000680D4908400A4908600846006820F4AF
:1006C000802008600846406820F4FE004860002052
:1006D000886000214FF0006000F058F800BD000075
:1006E000001002400000FFF8FFFFF6FE2DE9F04188
:1006F0000746884614461D46284600F033F8C5F1E3
:10070000040007FA00F60F20284100EA080006431B
:1007100006F00F06E21704EBD2625211920002F1CA
:10072000E022D2F800212146E31704EBD3635B11EA
:10073000A4EB431C012303FA0CF31A432046E317EE
:1007400004EBD3635B119B0003F1E023C3F80021AA
:100750000348005D40EA061001490855BDE8F081F4
:1007600000E400E00146072323EA01021202054BE0
:1007700018684FF6FF031840034B18431043014B12
:10078000186070470CED00E00000FA05024A0A40CC
:100790000243024B1A60704780FFFF1F08ED00E024
:1007A00010B50F48006908B9002010BDFFF764FFBD
:1007B0000B4909690968884210D3094800698168B2
:1007C00000208847064804692046FFF787FE207B03
:1007D000012802D12046FFF7AFFE00BF0020E4E76A
:1007E0003800002010B500F0F9F80448044908600A
:1007F0000448014608614861002010BDA1070008B7
:10080000140000203800002030B504460025FFF712
:1008100039FF1F48006840F480301D49086000BF60
:100820001B480068400C0028FAD04FF4806018493B
:100830004860A01EC4B20846406840EA8440486050
:100840000846406840F4803048601248006840F034
:100850003200104908600E48006840F080700C4972
:10086000086000BF0A480068400E0028FAD0084817
:10087000406840F002000649486005E004484068CE
:10088000C0F3870505F00305022DF7D130BD000048
:1008900000100240002002404FF08040008A00F02B
:1008A000010020B106480068401C054908604FF06F
:1008B0008040008A20F001004FF08041088270479C
:1008C000040000200848008800F0010020B107481B
:1008D0000068401C054908600348008820F00100BA
:1008E0000149088070470000100400400800002003
:1008F0000848008800F0010020B107480068401C4B
:10090000054908600348008820F00100014908807B
:1009100070470000100800400C00002010B50A4885
:10092000008800F0010040B108480068401C0749F9
:10093000086000200649096888470348008820F0BD
:1009400001000149088010BD100C0040100000207B
:10095000140000200848008A00F0010020B1074878
:100960000068401C054908600348008A20F0010027
:100970000149088270470000001000401800002064
:100980000848008800F0010020B107480068401CBA
:10099000054908600348008820F0010001490880EB
:1009A00070470000101400401C000020024800782E
:1009B000401C014908707047000000200248007880
:1009C000401C01490870704701000020024800786F
:1009D000401C014908707047020000201CB500242B
:1009E00005208DF8000000208DF8010001208DF811
:1009F0000200ADF80400DDE9000100F003F8044650
:100A000020461CBD73B500269DF80000092878D249
:100A1000DFE800F077050852A1F3F1F0EF006FF086
:100A20000206D5E1EC48C06940F00100EA49C8611E
:100A30008804808940F00100890488810846008884
:100A400040F0010008809DF80100012804D18007D2
:100A5000008840F0080008809DF8020020B10128BD
:100A600006D002281BD10EE04825BDF8044017E04F
:100A70004FF4E155BDF8040000EB80004FF6FF7124
:100A800001EA40040CE04FF4E155BDF8040040F2E7
:100A9000712148434FF6FF7101EA001400E000BFE6
:100AA00000BF4FF080408485058502231C22194633
:100AB0000120FFF71BFE8BE1C748C06940F0020030
:100AC000C549C861C548008840F00100C349088095
:100AD000C2480C38008840F00100C0490C39088039
:100AE0009DF80100012804D10846008840F0080064
:100AF00008809DF8020028B1012807D002281CD1E7
:100B00000FE062E14825BDF8044017E04FF4E155DD
:100B1000BDF8040000EB80004FF6FF7101EA4004CD
:100B20000CE04FF4E155BDF8040040F27121484358
:100B30004FF6FF7101EA001400E000BF00BFA748B4
:100B400020300480001F058002231D220321012084
:100B5000FFF7CCFD3CE1A048C06940F004009E498D
:100B6000C8619F48008840F001009D4908809C486A
:100B70000C38008840F0010099490C3908809DF834
:100B80000100012804D10846008840F008000880D0
:100B90009DF8020020B1012806D002281BD10EE0EA
:100BA0004825BDF8044017E04FF4E155BDF80400B6
:100BB00000EB80004FF6FF7101EA40040CE04FF4B7
:100BC000E155BDF8040040F2712148434FF6FF7132
:100BD00001EA001400E000BF00BF8148203004801B
:100BE000001F058002231E2204210120FFF77EFD45
:100BF000EEE0E7E098E04EE0FFE77748C06940F0BC
:100C000008007549C8617748008840F001007549BF
:100C1000088074480C38008840F0010071490C3994
:100C200008809DF80100012804D10846008840F0A2
:100C3000080008809DF8020020B1012806D0022893
:100C40001BD10EE04825BDF8044017E04FF4E155F4
:100C5000BDF8040000EB80004FF6FF7101EA40048C
:100C60000CE04FF4E155BDF8040040F27121484317
:100C70004FF6FF7101EA001400E000BF00BF5948C1
:100C800020300480001F058002233222052101202C
:100C9000FFF72CFD9CE05048C06940F010004E4921
:100CA000C8615148808940F001004F498881084659
:100CB000008840F0010008809DF80100012804D15F
:100CC0000846008840F0080008809DF8020020B126
:100CD000012806D002281BD10EE04825BDF80440AB
:100CE00017E04FF4E155BDF8040000EB80004FF62B
:100CF000FF7101EA40040CE04FF4E155BDF8040037
:100D000040F2712148434FF6FF7101EA001400E000
:100D100000BF00BF344884850585022336220621A2
:100D20000120FFF7E3FC53E02B48C06940F02000AE
:100D30002949C8612D48008840F001002B490880EE
:100D40002A480C38008840F0010028490C390880F6
:100D50009DF80100012804D10846008840F00800F1
:100D600008809DF8020020B1012806D002281BD17E
:100D70000EE04825BDF8044017E04FF4E155BDF8FA
:100D8000040000EB80004FF6FF7101EA40040CE024
:100D90004FF4E155BDF8040040F2712148434FF68D
:100DA000FF7101EA001400E000BF00BF0F482030CF
:100DB0000480001F05800223372207210120FFF74E
:100DC00095FC05E06FF0020602E06FF0010600BF3F
:100DD00000BF30467CBD0000001002400C04004003
:100DE0000C0800400C0C0040001000400C140040A7
:100DF0001D49098801F0200111B31B49091D09880B
:100E0000C8B21A49098801F40041C9B917490988CB
:100E100001F4804161B10A2803D00021134A1180F6
:100E200020E01249098841F40041104A118019E07C
:100E30000D2806D10D49098841F480410B4A1180E3
:100E400010E00A490988C1F30D01094A50540749C5
:100E50000988491C054A118011460988C72901DD06
:100E60000021118070470000003801402C00002054
:100E7000500000200FB4054B10B503A9044A029896
:100E800000F018F810BC5DF814FB00008510000895
:100E90002800002002E008C8121F08C1002AFAD169
:100EA00070477047002001E001C1121F002AFBD1EA
:100EB000704700002DE9FF4F89B09B46044600258E
:100EC00006E025280BD05A460B999047641C6D1CF0
:100ED00020780028F5D10DB02846BDE8F08F002716
:100EE000B8460122474900E0074314F8013F203B80
:100EF00002FA03F00842F7D120782E2819D114F80D
:100F0000010F47F004072A280ED06FF02F02207837
:100F1000A0F1300109290CD808EB880102EB41014E
:100F200000EB0108641CF2E70A98641C50F8048B7B
:100F30000A9020780028CED0642808D0692806D0EE
:100F400075281ED05A460B9990476D1C58E00A9997
:100F50004FF00A0901C90A91002802DA40422D2106
:100F600002E0390504D52B218DF82010012103E082
:100F7000F90704D02021F7E78A4608AE0DE00021EA
:100F8000FAE70A994FF00A0901C90A91F7E74946B9
:100F9000FFF7C9F9303106F8011D0028F7D1ADEB94
:100FA000060000F12009780701D44FF00108C84578
:100FB00002DDA8EB090000E000208046002706E0E3
:100FC00008A85A46C05D0B9990476D1C7F1C574579
:100FD000F6DB04E030205A460B9990476D1CB8F1BF
:100FE0000001A8F10108F5DC05E016F8010B5A46EE
:100FF0000B9990476D1CB9F10001A9F10109F4DCCE
:10100000641C65E7092801004FF0E021096921F01F
:1010100004014FF0E0221161C21700EB5272C2F3DB
:10102000C702074B1A701946097801EB4102C2EB5F
:10103000C1114FF6FF7202EAC101024A11807047E6
:10104000240000202600002001460D4A12884A4351
:101050004FF0E0235A6100229A6101221A6100BF19
:101060004FF0E022106900F001021AB100F4803262
:10107000002AF5D000224FF0E0231A619A617047F0
:101080002600002000BF054A128802F04002002A14
:10109000F9D0C2B2014B1B1D1A80704700380140C5
:1010A0000920FFF7B1FB4820FFF7AEFF4FF4E13115
:1010B000482000F077F8FFF795FB4FF4FA62012122
:1010C0001348FFF7EFF904462046FFF735FA40F6DC
:1010D000B83201210F48FFF7E5F905462846FFF72A
:1010E0002BFA4FF4487201210B48FFF7DBF9064653
:1010F0003046FFF721FAFFF7BFFA0746394607A047
:10110000FFF7B8FE00BF01E0FFF76CF9FCE7000055
:10111000AD090008BD090008CD09000874696D65B6
:101120007220696E697420636F6D706C657465649C
:101130003A25640D0A000000F0B50B30154D20F083
:1011400007010024144A0FE003688B420BD38B4243
:1011500005D95E1A43184768C3E9006700E0436891
:10116000136002C004E0021D10680028ECD1204684
:10117000002802D1286808B10020F0BD064A0748BF
:101180001060074A121A22F00702C0E90024012069
:101190002860D7E734000020300000201C01002028
:1011A000180100202DE9F05F05460E463001FFF7DB
:1011B000A1F881462E4905FB01F0FFF79BF8824616
:1011C0004946FFF759F807463846FFF798F884B2C2
:1011D0002046FFF78FF883463946FFF718F8824616
:1011E0004FF08341FFF716F88146FFF788F88046F5
:1011F0004FF6FF7000EA041404EB080084B21D48A7
:10120000806940F004001B4988610846806940F409
:10121000804088611848006820F47F6016490860A3
:101220000846006840F40B6008601248C06840F44B
:1012300080401049C8600846C06820F48040C860FB
:101240000E480480001D008842F20C0108430B493F
:10125000091D08800846008840F02000088002230D
:10126000252203210846FFF741FABDE8F09F000060
:1012700040420F00001002400408014008380140BD
:10128000A01200080000002038000000940E0008A2
:10129000D812000838000020E0040000A40E000866
:1012A000000000000000000000000000000000003E
:1012B000000000000000000000000000000000002E
:1012C000000000000000000000000000000000001E
:0812D000000000000000000016
:0400000508000131BD
:00000001FF
